:100000000C942A000C9450000C9450000C94500056
:100010000C9450000C9450000C9450000C94500020
:100020000C9450000C9450000C94DF030C9450007E
:100030000C9450000C9419040C9445040C9450003A
:100040000C9450000C9450000C9450000C945000F0
:100050000C94500011241FBECFE5D8E0DEBFCDBF09
:1000600014BE0FB6F894A89581B5886181BD11BC06
:100070000FBE12E0A0E6B0E0E2EAF5E102C00590B2
:100080000D92A23BB107D9F723E0A2EBB2E001C089
:100090001D92A33CB207E1F70E949B000C94CF0A8B
:1000A0000C940000979A0895CF93DF93EC010E947F
:1000B0006C070E94520081E08093B8021092B9024E
:1000C0001092B602CE01DF91CF910C94A104CF9390
:1000D0008091B802882331F08CEA90E00E94A1045C
:1000E000C0E008C0C091B902C11107C086EB90E022
:1000F0000E94A1048C2FCF9108958091B70288238C
:10010000C9F383EC90E0EACF682F80916000909172
:1001100061000E94F70681110BC00E947C078111CB
:1001200004C085ED90E00C94A1048CEC90E0FBCF32
:100130008FED90E0F8CFCF93DF93CDB7DEB7C75701
:10014000D1090FB6F894DEBF0FBECDBF979A8F9A34
:100150000E9404040E946C040E940D060E94AB06DB
:1001600078940E9406050E94AE05811154C089EE64
:1001700090E00E9454000E940D046093B2027093BC
:10018000B3028093B4029093B50288E19FE00FB66A
:10019000F894A89581BD0FBE91BD772473948E010C
:1001A0000F5F1F4F82E0E82EF12CCC24C394D12C9A
:1001B0000E940D044B015C010E9422068091EA021C
:1001C0008823E9F08091EC029091ED02A091EE027B
:1001D000B091EF02A5019401281B390B4A0B5B0B70
:1001E000DA01C9018C329140A105B10540F01092AD
:1001F000EA027092EB0287E091E00E94A1040E9463
:100200008F04882309F46CC00E946C0788E191E098
:100210000E94A10465C086EF90E00E94A104ABCFCC
:10022000E8968FADE8978D3011F08A3061F56090D7
:10023000EB02662039F01092EB021092EA0289EA92
:1002400092E0E6CFE091EA02EE2309F449C0F0E043
:10025000E654FD4F10821092EA0264E271E08AEBEC
:1002600092E00E94D307892B09F08CC08092B202E1
:100270009092B302A092B402B092B5021092B7026B
:1002800089E291E0C5CF9FEB980F9A31A8F090EDED
:10029000980F9A3088F091E08F3519F0803209F08C
:1002A00090E090FF04C0E091EA02EF3238F0109243
:1002B000EA027092EB02C3CF91E0F3CFE11108C0E4
:1002C0008092EC029092ED02A092EE02B092EF02C8
:1002D00091E09E0F9093EA02F0E0E654FD4F808398
:1002E000CE0189589F4F0E947504582E811198CFD6
:1002F0008091B902882309F18091B70281111DC054
:100300008091B2029091B302A091B402B091B50273
:10031000A5019401281B390B4A0B5B0BDA01C901BB
:10032000883E9340A105B10540F00E946C07709291
:10033000B7028DE692E00E94A1048091B602882364
:1003400089F048EB84164BE09406A104B10450F008
:100350000E9452000E9497071092B60286E892E02F
:100360000E94A1048091B902882351F0C501B40113
:100370000E940C07811104C08AE992E00E94540097
:10038000A89516CF61E371E08AEB92E00E94D30753
:10039000892B09F058C08092B2029092B302A092C9
:1003A000B402B092B50285E090E00E948B07282E3F
:1003B00084E090E00E948B07382E83E090E00E945A
:1003C0008B07482E82E090E00E948B07582E81E038
:1003D00090E00E948B07682E90E080E00E948B07DF
:1003E0001F922F921F923F921F924F921F925F92E5
:1003F0001F926F921F928F93809161008F938091D3
:1004000060008F938091B70287251F928F93809110
:10041000B8021F928F938091B9021F928F9348E385
:1004200051E05F934F931F9286E78F931F930F9333
:100430000E94EA07C8010E94A1040FB6F894DEBF2B
:100440000FBECDBF4DCF65E771E08AEB92E00E9411
:10045000D307892B69F48092B2029092B302A092E2
:10046000B402B092B5020E946C078AE791E0D0CE48
:1004700065E871E08AEB92E00E94D307892BA9F42A
:100480008092B2029092B302A092B402B092B502EE
:100490000E946C070E9452000E9497071092B902B6
:1004A0001092B6028BEF90E0B3CE68E871E08AEB71
:1004B00092E00E94D307892B59F48092B202909265
:1004C000B302A092B402B092B5028CE891E0A0CE43
:1004D00064EA71E08AEB92E00E94D307892BC1F4B1
:1004E0008092B2029092B302A092B402B092B5028E
:1004F0000E9452000E949707811105C08EEE90E085
:100500000E945400EDCE1092B60281EA91E080CEB6
:1005100045E050E06DEA71E08AEB92E00E94DC0772
:10052000892B09F03EC0AFEBB2E070E030E020E094
:100530008D9190ED980F9A3010F1772391F18032E0
:1005400081F5FD0190E080E0619140ED460F4A3079
:1005500008F43EC0662029F1611123C02630310520
:1005600000F5853B9105E8F48092B2029092B302C7
:10057000A092B402B092B50283EB91E049CE9AE02A
:10058000929FA001939F500D11249A01205331098D
:10059000280F311D87FD3A95752D283E43E034071D
:1005A00038F265EC71E08AEB92E00E94D307892B68
:1005B00011F510926100109260008092B202909248
:1005C000B302A092B402B092B50283E192E020CED1
:1005D000AAE0A89FA001A99F500D1124CA01C097AD
:1005E000860F911D67FD9A95672E883E43E094071C
:1005F00008F4AACFD6CF61ED71E08AEB92E00E94B9
:10060000D307892B29F4D0926100C0926000D5CF26
:1006100061EE71E08AEB92E00E94D307892B29F406
:10062000F0926100E0926000C8CF6EEE71E08AEB5C
:1006300092E00E94D307892B39F483E090E09093F5
:10064000610080936000B9CF61E072E08AEB92E0D4
:100650000E94D307892B19F485E090E0F0CF60E188
:1006600072E08AEB92E00E94D307892BB9F4809262
:10067000B2029092B302A092B402B092B5020E946C
:100680006700882309F42CCE80916000909161006E
:100690000197039790F182E292E0BACD6DE172E0AA
:1006A0008AEB92E00E94D307892B09F360E372E0A2
:1006B0008AEB92E00E94D307892B41F065E372E058
:1006C0008AEB92E00E94D307892B29F58092B2022F
:1006D0009092B302A092B402B092B5020E94670059
:1006E000882309F4FDCD80916000909161008B7F9B
:1006F000892B89F665E372E002C060E172E08AEB63
:1007000092E00E94D307892B21F08BEF0E94840096
:10071000E7CD85E0FBCF6BE372E08AEB92E00E94CD
:10072000D307892B41F060E472E08AEB92E00E94EB
:10073000D307892B71F58092B2029092B302A092F6
:10074000B402B092B5020E946700882309F4C8CDB4
:100750000E947C07882339F00E948607059719F0CC
:100760008CEC90E055CD6BE372E08AEB92E00E9456
:10077000D3076DE7892B09F463E285E090E00E94DE
:10078000C406811103C085ED90E042CD8FED90E06D
:100790003FCD66E472E08AEB92E00E94D307892B9A
:1007A00059F48092B2029092B302A092B402B09235
:1007B000B5028BE492E02CCD81E692E029CD1F9228
:1007C0000F920FB60F9211248F939F93AF93BF9305
:1007D0008091F0029091F102A091F202B091F302A7
:1007E0000196A11DB11D8093F0029093F102A09398
:1007F000F202B093F302BF91AF919F918F910F904E
:100800000FBE0F901F9018958BE083BF8CE78CBFB5
:1008100012BE89B7826089BF08952FB7F89460919E
:10082000F0027091F1028091F2029091F3022FBFD9
:1008300008951F920F920FB60F9211242F938F934A
:100840009F93EF93FF939BB12CB1809178039C71A0
:1008500069F081E08093F402FF91EF919F918F9175
:100860002F910F900FBE0F901F9018958F5F8F7371
:1008700090917703981769F3E0917803F0E0E758D7
:10088000FC4F208380937803E7CF1F920F920FB61F
:100890000F9211248F939F93EF93FF939091F50202
:1008A0008091F60298130AC05598FF91EF919F919D
:1008B0008F910F900FBE0F901F901895E091F50249
:1008C000F0E0E950FD4F80818CB98091F5028F5F97
:1008D0008F778093F502E9CF1BB810BC83E389B909
:1008E00086E880BD88E98AB908950097B1F0309113
:1008F000770320917803321781F0E0917703F0E0DD
:10090000E758FC4F2081FC012083809177038F5FA3
:100910008F738093770381E0089580E008958FB707
:10092000F8949091F4021092F402992321F020910E
:100930007803209377038FBF81E0911101C080E09D
:1009400008950097D1F0FC0101900020E9F79F0184
:1009500021503109281B390B2F37310570F4409194
:10096000F6025091F5025150541B5F7761E0620F1F
:10097000FC01280F391F561720F480E0089581915B
:100980008C93A42FB0E04F5F4F77A950BD4F2E1727
:100990003F07A9F78AE08C938FB7F8944093F6024B
:1009A000559A8FBF81E00895CF92DF92EF92FF9228
:1009B0000E940D046B017C0106B607FE02C081E0B7
:1009C0000FC00E940D046C197D098E099F096530C6
:1009D00071058105910580F316BE84E086BF80E035
:1009E000FF90EF90DF90CF900895CF93C62F83B9FB
:1009F00084E886BF0E94D404882321F091B1987FB7
:100A000081E09C1380E08170CF91089511B880E25D
:100A100080B984E086BF0895CF92DF92EF92FF9273
:100A20000F931F93CF9387FD58C04115510509F4CB
:100A300054C0222309F451C0E22E8A01F62EC82F99
:100A400084EA86BF0E94D404811113C0C0E00E94D2
:100A50000D046B017C0184E986BF06B604FC2FC03F
:100A60008C2FCF911F910F91FF90EF90DF90CF903F
:100A7000089581B1887F91E0883019F0803109F0C4
:100A800090E090FFE3CF68E18C2F880F0E94F5047F
:100A90008823E1F268E28F2D0E94F504C82FE00E52
:100AA000F12EF11CCC2391F2E016F10681F268E2FE
:100AB000F80181918F010E94F504C82FF3CF0E94A5
:100AC0000D046C197D098E099F096530710581053A
:100AD000910518F216BE84E086BFC0E0C1CFCF9367
:100AE000DF931F92CDB7DEB7698321E0AE014F5F80
:100AF0005F4F682F80E40E940C050F90DF91CF912B
:100B00000895CF93DF9300D000D0CDB7DEB7198220
:100B10001A821B8290E19C83803190F4682F660FCB
:100B2000660F6A5F24E0AE014F5F5F4F80E40E9472
:100B30000C050F900F900F900F90DF91CF910895BB
:100B400080E0F7CFCF93C0E08C2F0E9481058823EF
:100B500019F0CF5FC031C1F7CF91089560E180E017
:100B60000E946F058823F9F064E081E00E946F0520
:100B70008823C9F069E78EEF0E946F05882399F0FA
:100B800060E280E00E946F05882369F087EE93E0C1
:100B90000197F1F700C0000060EA80E00E946F0555
:100BA00081110C94A20580E008951F93CF93DF93E9
:100BB00000D000D0CDB7DEB7803168F59B01205959
:100BC00031402939384038F59B01182FA9E1B0E0B0
:100BD0000E94BD07635C7F4F8F4F9F4F2AE730E035
:100BE00040E050E00E949B0719821A822B833C83CD
:100BF000612F660F660F6A5F24E0AE014F5F5F4FA3
:100C000080E40E940C050F900F900F900F90DF91E1
:100C1000CF911F91089580E0F6CF8A98929A80B381
:100C200082FB882780F991E089278093BE03809317
:100C3000BD031092B9031092BA031092BB03109235
:100C4000BC0308950F931F9320B322FB332730F981
:100C500021E023273091BE03321751F02093BE03C9
:100C60006093B9037093BA038093BB039093BC0362
:100C70002091BE03222331F081E08093BD031F91B8
:100C80000F9108950091B9031091BA032091BB030D
:100C90003091BC03AB01BC01401B510B620B730BC9
:100CA000443151056105710550F31092BD03E7CF42
:100CB000EF92FF920F931F93CF93DF938C01112735
:100CC0002CE0829FF0011124EC59FF4F8181882391
:100CD000D1F183819281E92EF12C482F50E04E19F9
:100CE0005F09C581D681278130852C1B3D0B71851D
:100CF000772319F0890F861B682FA62FB0E0AE1955
:100D0000BF090E94CC079A0136952795620F731F81
:100D1000811D911D9A0150E040E00E949B07BE0199
:100D2000620F731F8CE0809FF001819FF00D1124F2
:100D3000EC59FF4F8081DF91CF911F910F91FF9070
:100D4000EF900C94D50580E0DF91CF911F910F912A
:100D5000FF90EF9008958FEF90E090936300809361
:100D600062001092BF031092C0031092C103109250
:100D7000C203E4E6F0E08481828783873C9680E0CA
:100D8000EC3AF807C1F70895863078F5AC0155279D
:100D90002CE0829FF0011124EC59FF4F2181222386
:100DA00021F12281621708F123812617F0F02091AA
:100DB0006200309163002F3F310519F082179307CD
:100DC000A1F42CE0249FF001259FF00D1124EC5993
:100DD000FF4F63872285621302C08FEF90E09093EC
:100DE00063008093620081E0089580E0089586307A
:100DF00088F42CE0829FF0011124EC59FF4F2385E9
:100E0000062E000C770B620F711D653B710510F407
:100E10000C94C40680E00895CF92DF92EF92FF9287
:100E20000F931F93CF9340916200509163004F3F07
:100E3000510549F481E0CF911F910F91FF90EF9000
:100E4000DF90CF9008950091BF031091C0032091CF
:100E5000C1033091C2036B017C01C01AD10AE20ABE
:100E6000F30A97018601043111052105310510F3BC
:100E70006093BF037093C0038093C1039093C20338
:100E80008A0111278CE0489FF0011124EC59FF4F93
:100E900022853385CFEF231708F4C1E0463010F0E8
:100EA00080E0C9CFC20F6C2FCA010E945806882368
:100EB000B9F39CE0909FF001919FF00D1124EC5943
:100EC000FF4FC28793859C13B5CF2FEF30E030934F
:100ED000630020936200AFCFE4E6F0E08285838771
:100EE0003C9680E0EC3AF807C9F78FEF90E09093DA
:100EF000630080936200089581E020916200309148
:100F000063002F3F310509F480E00895809162006D
:100F1000909163000895863040F49CE0899FF00131
:100F20001124EC59FF4F8285089580E008950E94B6
:100F30006C070C94A205A1E21A2EAA1BBB1BFD0193
:100F40000DC0AA1FBB1FEE1FFF1FA217B307E407A8
:100F5000F50720F0A21BB30BE40BF50B661F771F00
:100F6000881F991F1A9469F76095709580959095E0
:100F70009B01AC01BD01CF010895A29FB001B39FB9
:100F8000C001A39F700D811D1124911DB29F700D92
:100F9000811D1124911D08950E94BD07B7FF08957A
:100FA000821B930B0895FB01DC018D910190801948
:100FB0000110D9F3990B0895FB01DC014150504019
:100FC00030F08D910190801919F40020B9F7881B39
:100FD000990B0895AEE0B0E0E0EFF7E00C94A60ABC
:100FE0000D891E898F89988D26E02C831A830983A9
:100FF00097FF02C080E090E801979E838D83AE0149
:10100000455E5F4F698D7A8DCE0101960E941A0868
:101010004D815E8157FD0AC02F81388542175307E5
:101020000CF49A01020F131FF80110822E96E4E0CF
:101030000C94C20AABE0B0E0E0E2F8E00C94980A4D
:101040007C013B018A01FC0117821682838181FFAA
:10105000C8C1CE0101965C01F7019381F30193FDB4
:10106000859193FF81913F01882309F453C1853213
:1010700039F493FD859193FF81913F01853229F4E5
:10108000B70190E00E940A0AE7CF912C212C312C65
:10109000FFE1F31538F08B3211F190F4803209F151
:1010A000833229F137FC3CC020ED280F2A3050F55F
:1010B00036FE20C08AE0989E200D1124922E06C094
:1010C0008D3291F0803371F7689430F8F30193FD1D
:1010D000859193FF81913F018111DACF21C06894FE
:1010E00031F8689432F8F2CF689433F8EFCF68940F
:1010F00034F8ECCFEAE02E9E200D1124222E6894C5
:1011000035F8E4CF8E3229F436FC04C1689436F801
:10111000DDCF8C3619F4689437F8D8CF8836B1F221
:10112000982F9F7D95549330E0F08336A1F183375B
:10113000C1F1833509F063C02801F2E04F0E511C64
:10114000F801C080D180692D70E036FC02C06FEFDD
:101150007FEFC6010E94F4094C01689437F88201C0
:101160000AC00C5F1F4FFFE3F98388248394912CFE
:101170006501E89437F833FE2DC0522C8114910498
:1011800071F5552009F468CFB70180E290E00E9424
:101190000A0A5A94F6CFF801808189830E5F1F4FA7
:1011A000E4CF2801F2E04F0E511CF801C080D1803D
:1011B000692D70E036FC02C06FEF7FEFC6010E9420
:1011C000FF094C018201D5CFB70180E290E00E9477
:1011D0000A0A2A942814190409F0B0F7CECFF601B0
:1011E00037FC859137FE81916F01B70190E00E9435
:1011F0000A0A51105A94F1E08F1A9108BFCF843631
:1012000019F0893609F077C0F80137FE6BC06081AC
:101210007181828193810C5F1F4FF32DFF763F2EEA
:1012200097FF09C090958095709561957F4F8F4F7E
:101230009F4F689437F82AE030E0A5010E943A0AEF
:10124000C82ECA188C2C432C36FE0CC0E89440F8EB
:10125000C91440F434FE05C032FC03C0F32DFE7EF9
:101260004F2E892C44FE95C0FE01EC0DF11D8081AE
:10127000803309F087C0242D297E422E842D88706A
:10128000582E43FC95C040FE8FC09C2C821418F44D
:101290002C0C922C981844FE91C0B70180E390E08A
:1012A0000E940A0A42FE09C088E790E041FE02C09F
:1012B00088E590E0B7010E940A0AC91408F48AC0C0
:1012C000CA94D12C9FEFC91AD90ACA0CDB1CF601AB
:1012D00082916F01B70190E00E940A0AAC14BD042C
:1012E000B1F74FCF60817181072E000C880B990BED
:1012F0000E5F1F4F92CFD32CE894D4F82AE030E051
:10130000853739F1232D297FD22E8F3601F148F40C
:101310008835A9F0F701868197812B96E2E10C943C
:10132000B40A803749F08837A9F7D4FE02C0689420
:10133000D2F820E130E00DC06894D4F8F6CF34FE46
:1013400003C0822F8660D82E20E132E002C028E060
:1013500030E0F801D7FE0FC06081718182819381F6
:101360000C5F1F4FA5010E943A0AC82ECA183D2CD7
:10137000E89437F867CF6081718190E080E00E5F7C
:101380001F4FF0CF42FC02C0839478CF83948394A4
:1013900075CF842D867809F471CFF6CFB70180E23E
:1013A00090E00E940A0A83948214C0F3512C73CFF8
:1013B000522C5818821408F46ECFF8CF842D8678FA
:1013C00009F47BCF8BE241FE80E247FC8DE2B7015E
:1013D00090E071CFB70180E390E00E940A0A9A94EE
:1013E0006CCF8FEF9FEF99CFFC010590615070405B
:1013F0000110D8F7809590958E0F9F1F0895FC01DE
:101400006150704001900110D8F7809590958E0F33
:101410009F1F08950F931F93CF93DF93182F092FCA
:10142000EB018B8181FD09C01FEF0FEF812F902F02
:10143000DF91CF911F910F91089582FF14C02E81EB
:101440003F818C819D81281739073CF4E881F9811F
:10145000CF0101969983888310838E819F810196A5
:101460009F838E83E3CFE885F985812F0995892BAA
:10147000A1F3DACFFA01AA27283051F1203181F106
:10148000E8946F936E7F6E5F7F4F8F4F9F4FAF4F8C
:10149000B1E03ED0B4E03CD0670F781F891F9A1F9F
:1014A000A11D680F791F8A1F911DA11D6A0F711D53
:1014B000811D911DA11D20D009F468943F912AE05F
:1014C000269F11243019305D3193DEF6CF01089547
:1014D000462F4770405D4193B3E00FD0C9F7F6CF78
:1014E000462F4F70405D4A3318F0495D31FD405240
:1014F000419302D0A9F7EACFB4E0A69597958795D6
:1015000077956795BA95C9F70097610571050895B4
:101510009B01AC010A2E0694579547953795279560
:10152000BA95C9F7620F731F841F951FA01D0895F8
:101530002F923F924F925F926F927F928F929F92E3
:10154000AF92BF92CF92DF92EF92FF920F931F93D1
:10155000CF93DF93CDB7DEB7CA1BDB0B0FB6F89482
:10156000DEBF0FBECDBF09942A88398848885F84C2
:101570006E847D848C849B84AA84B984C884DF8033
:10158000EE80FD800C811B81AA81B981CE0FD11D17
:101590000FB6F894DEBF0FBECDBFED010895F894ED
:0215A000FFCF7B
:1015A2000100FF00000114A05AE803D007005A5AB4
:1015B200010119965AE803D007005A5A020114A0F1
:1015C2005AE803D007005A5A030114A05AE803D07C
:1015D20007005A5A04000FA55AE803D007005A5AC6
:1015E2000501198723E803D007002323455252201F
:1015F2004641554C54004552522044495341524DA4
:10160200454400455252204C494E4B00455252200F
:1016120042555359004552522052414E4745004FC0
:101622004B2051554555454400424F4F5420455299
:10163200522050434100424F4F54204F4B204449C7
:101642005341524D454400455252204C494E455F4C
:1016520054494D454F55540045525220554152541C
:101662005F52580050494E47004F4B20504F4E4753
:1016720000535441545553004F4B20535441545539
:10168200532041524D3D2575204641554C543D2530
:1016920075204C494E4B3D25752053454C3D2575D3
:1016A20020413D25752C25752C25752C25752C255D
:1016B200752C25750053544F50004F4B2053544FF7
:1016C200505045440044495341524D004552522026
:1016D2004E4F545F434F4D4D495353494F4E45442E
:1016E200004F4B20544553545F4F464600544553D8
:1016F20054200045525220544553545F44495341AB
:10170200424C45440053454C4543545F4241534586
:101712000053454C4543545F53484F554C44455242
:101722000053454C4543545F454C424F5700534587
:101732004C4543545F57524953545F5049544348B0
:101742000053454C4543545F47524950504552005F
:101752005550004F4B2053454C45435400444F577E
:101762004E0045525220444952454354494F4E007F
:101772004C454654005249474854004F50454E008C
:10178200434C4F534500484F4D4500455252204867
:101792004F4D455F554E434F4E464947555245447E
:1017A2000045525220434F4D4D414E440045525246
:1017B200204C494E4B5F54494D454F555420484F9C
:1017C2004C44494E47004F4B20544553545F5449B3
:1017D2004D454F55545F4F464600455252205043A7
:1017E20041204D4F54494F4E00455252204C494ED4
:0217F2004500B0
:00000001FF
